:100000000C94A9010C94DF090C94B8090C94910983
:100010000C946A090C94D1010C94D1010C944309FD
:100020000C94D1010C94D1010C94060A0C94750A1D
:100030000C94D1010C94D1010C94D1010C94D101F8
:100040000C94D1010C94D1010C94D1010C94D101E8
:100050000C94D1010C94D1010C94D1010C94F908A9
:100060000C94D1010C94D1010C94D1010C94D101C8
:100070000C94D1010C94D1010C94D1010C94D101B8
:100080000C94D1010C94D1010C94D1010C94D101A8
:100090000C94D1010C94D1010C94D1010C94D10198
:1000A0000C94D1010C94D1010C94D101080B0002E5
:1000B0000202000009040000010202000005240001
:1000C0001001052401010104240206052406000193
:1000D0000705810310004009040100020A00000026
:1000E00007050202400000070583024000000403E8
:1000F000090412010002EF02014041233680000191
:100100000102030141726475696E6F204C4C43001B
:1001100041726475696E6F204C656F6E6172646FB9
:100120000000000000240027002A002D00300000FD
:10013000000000250028002B002E003100000000E8
:10014000002300260029002C002F000404040404CE
:10015000030405020202020403020202020606066A
:100160000606060404020202040404080201104008
:100170008040102040804080080204018040201010
:100180000201108010204040200000000200090FF2
:100190000000030401000C0000000000000000004B
:1001A000000000000000000000000000000000004F
:1001B0002A2B2800000000000000000000000000C2
:1001C00000000000000000002C9EB4A0A1A2A434F6
:1001D000A6A7A5AE362D3738271E1F20212223249F
:1001E0002526B333B62EB7B89F8485868788898A3B
:1001F0008B8C8D8E8F909192939495969798999AD7
:100200009B9C9D2F3130A3AD350405060708090AD4
:100210000B0C0D0E0F101112131415161718191AB6
:100220001B1C1DAFB1B0B50005010906A101850277
:10023000050719E029E715002501750195088102D8
:100240009501750881039506750815002573050746
:10025000190029738100C005010905A10185040564
:10026000091901290F15002501950F7501810295C6
:100270000175018103050109300931093215812514
:100280007F950375088102850515002501050A097A
:1002900001A1020508094B750195019102C0050AEB
:1002A0000902A1020508094B750195019102C005DB
:1002B0000A0903A1020508094B750195019102C0C5
:1002C000050A0904A1020508094B7501950191026F
:1002D000C0050A0905A1020508094B7501950191A0
:1002E00002C0050A0906A1020508094B750195011E
:1002F0009102C0050A0907A1020508094B7501957D
:10030000019102C0050A0908A1020508094B7501FF
:1003100095019102C0050A0909A1020508094B755A
:100320000195019102C0050A090AA1020508094BBD
:10033000750195019102C0050A090BA10205080982
:100340004B750195019102C0950175059103C0009F
:10035000A70C11241FBECFEFDAE0DEBFCDBF11E046
:10036000A0E0B1E0EAEBF7E202C005900D92A239FD
:10037000B107D9F723E0A2E9B1E001C01D92A6368A
:10038000B207E1F711E0C9EAD1E004C02197FE010C
:100390000E94A712C83AD107C9F70E94E40F0C9433
:1003A000DB130C94000096E0899FD0011124A45324
:1003B000BD4F90967C936E935F9791E091969C933E
:1003C0009197E0913903F0913A0390913803992382
:1003D00039F0309751F0811108C08091E8020994FA
:1003E000309719F05C968C91FACF0895CF92DF92F6
:1003F000EF92FF920F931F9396E0899FF0011124D3
:10040000E453FD4F11A2278D30A12130310551F168
:1004100078F02230310509F451C02330310509F458
:1004200052C01F910F91FF90EF90DF90CF900895F1
:100430006623B9F361E070E00E94D3012FB7F8940E
:100440008091B1019091B201A091B301B091B4013A
:100450002FBF8093240390932503A0932603B0938A
:100460002703DFCF9FB7F894C090B101D090B201BD
:10047000E090B301F090B4019FBF0091240310916C
:1004800025032091260330912703C01AD10AE20ADE
:10049000F30A009136031091370330E020E00C1589
:1004A0001D052E053F0550F462E070E01F910F918D
:1004B000FF90EF90DF90CF900C94D3016111B1CFFA
:1004C00063E070E0F3CF70E060E0F0CFFC0180917A
:1004D000B001882311F13FB7F89482E08093E900DE
:1004E0002091F200822F90E01816190614F481E092
:1004F00090E0882339F0289844E64093AF0140917A
:10050000F1004083222339F02091F200211103C031
:100510002BE62093E8003FBF08958FEF9FEF0895EB
:1005200081508F3008F047C0E82FF0E0E656FD4FCD
:100530000C94A712B702BB02A902AF02B302DB02FE
:10054000DB02DB02BE02C402C802CC02D202DB0222
:10055000D602809180008F778093800008958091EB
:1005600080008F7DF9CF80918000877FF5CF84B5A3
:100570008F7784BD089584B58F7DFBCF80919000E7
:100580008F77809390000895809190008F7DF9CFB0
:1005900080919000877FF5CF8091C0008F77809306
:1005A000C00008958091C0008F7DF9CF8091C20076
:1005B000877F8093C2000895CF93DF93282F30E088
:1005C000F901E757FE4F8491F901E659FE4FD491A6
:1005D000F901E55BFE4FC491CC23A1F081110E948B
:1005E0009002EC2FF0E0EE0FFF1FE35CFE4FA591B1
:1005F000B491EC91ED2381E090E009F480E0DF918B
:10060000CF91089580E090E0FACF1F93CF93DF93CE
:10061000282F30E0F901E757FE4F8491F901E659A0
:10062000FE4FD491F901E55BFE4FC491CC23A9F0B4
:10063000162F81110E949002EC2FF0E0EE0FFF1FA9
:10064000E15DFE4FA591B4918FB7F894EC91111133
:1006500008C0D095DE23DC938FBFDF91CF911F912F
:100660000895DE2BF8CFCF93DF9390E0FC01E6599D
:10067000FE4F2491855B9E4FFC0184918823C9F035
:1006800090E0880F991FFC01EF5DFE4FA591B4919A
:10069000FC01E15DFE4FC591D49161110DC09FB782
:1006A000F8948C91209582238C9388812823288329
:1006B0009FBFDF91CF910895623051F49FB7F894B6
:1006C0003C91822F809583238C93E8812E2BEFCF52
:1006D0008FB7F894EC912E2B2C938FBFEACF3FB7B6
:1006E000F8948091AB019091AC01A091AD01B091D3
:1006F000AE0126B5A89B05C02F3F19F00196A11D9C
:10070000B11D3FBFBA2FA92F982F8827BC01CD015B
:10071000620F711D811D911D42E0660F771F881FBA
:10072000991F4A95D1F70895CF92DF92EF92FF92E9
:100730000E946F036B017C010E946F036C197D099D
:100740008E099F09683E734081059105A8F3FF90CB
:10075000EF90DF90CF900895862F642F0C94330391
:10076000862F642F0C940503862F0C94DC02F894DA
:1007700081E00E94DC024091A6015091A7016091A6
:10078000A8017091A901892B71F44F5F5F4F6F4FE2
:100790007F4F4093A6015093A7016093A8017093E7
:1007A000A901789408954150510961097109F1CF67
:1007B00008954091A0015091A10120919E01309196
:1007C0009F0142175307B4F49091E8009570E1F34C
:1007D0009091E80092FD19C08093F1008091A001F2
:1007E0009091A10101968F739927892B19F48EEFAF
:1007F0008093E8008091A0019091A10101969093CF
:10080000A1018093A00181E0089580E00895EF9216
:10081000FF920F931F93CF93DF93F82E192FE62E9D
:10082000042F81E0860F880F0E94D90383E00E9485
:10083000D903CF2DD12FEC0EFD2EF11CCE15DF05E7
:10084000B9F007FF13C0FE0184910E94D903182F4D
:1008500080E00E94D903812321968111EFCFDF919F
:10086000CF911F910F91FF90EF9008958881EDCF68
:1008700081E0F5CFDF92EF92FF920F931F93CF931A
:10088000DF93D82E8A01EB017B01E40EF51ECE1515
:10089000DF0559F0D7FE12C0FE0184910E94D903F2
:1008A00021968111F4CF0FEF1FEFC801DF91CF9197
:1008B0001F910F91FF90EF90DF9008958881EECF08
:1008C0002FB7F89487708093E9009091E800892F02
:1008D000807295FF04C09091F20080E4891B2FBFC5
:1008E00008957F928F929F92AF92BF92CF92DF92A4
:1008F000EF92FF920F931F93CF93DF93C82E8B013C
:100900007A018091B001811110C08FEF9FEFDF91CC
:10091000CF911F910F91FF90EF90DF90CF90BF90FC
:10092000AF909F908F907F9008958091A40180FF59
:1009300005C08091E00082608093E000CE2DDF2D25
:10094000D12C8AEFB82E8C2D8770982E8C2D80722A
:10095000882E8C2D8074782E9AE3A92E209719F476
:10096000DD2009F44EC08C2D0E946004811106C068
:10097000BA94BB2051F20E949403F0CF8C171D064D
:1009800011F00CF08C2F9FB7F8949092E900209111
:10099000E80025FD02C09FBFE1CF282F30E0C21B39
:1009A000D30B882029F08150A0F01092F100FBCFEA
:1009B000F801C7FC0AC0815050F041914093F1000A
:1009C000FACF44914093F10031968150D0F7020F55
:1009D000131FDD2021F0A092E800D12CDCCF809104
:1009E000E80085FD07C0A092E800DD24D39420979D
:1009F00091F2F3CF209779F6772069F2A092E80080
:100A0000CACF5D9884E68093A301C70180CF61506F
:100A100030F02091F100FC0120830196F8CF289856
:100A200084E68093AF0108958091960181110DC0F5
:100A300082E08093920184E080939301109295016B
:100A40001092940181E08093960182E991E00895EB
:100A50000F931F93CF93DF931F92CDB7DEB782E042
:100A6000898342E450E06CEA70E080E80E943A0436
:100A70000E941405DC0112960D911C9101151105BF
:100A800089F0D801ED91FC910280F381E02DBE0147
:100A90006F5F7F4FC801099597FD04C0F80100857D
:100AA0001185ECCF89810F90DF91CF911F910F912C
:100AB0000895CF93DF93FC01DB01818114963C9173
:100AC0001497682F630F7727771F683071059CF59F
:100AD000C281D381209739F5B383A2839081129686
:100AE0009C93129713968C93139715968C91159748
:100AF000890F808390E080E0831708F52181C22F61
:100B0000D0E0BE0160507F4F16964D915C911797D3
:100B1000480F591FEA014881EB0148832F5F218369
:100B20000196EACFEA014885598541155105D1F76B
:100B3000B987A887D3CF80E0DF91CF91089581E076
:100B4000FBCFEBE3F3E081E08483858325E433E0AE
:100B5000378326831186108626E431E03183208393
:100B600014861386168615868787808B81EC82878C
:100B70000E9414056BE373E00C9459050F931F93C7
:100B8000CF93DF931F92CDB7DEB78C0180914C03DA
:100B9000811105C00E94A10581E080934C0382E091
:100BA000898341E050E0BE016F5F7F4F80913E033B
:100BB0000E94710497FD08C080913E0348E050E018
:100BC000B80180640E9471040F90DF91CF911F9152
:100BD0000F910895CF93DF93EC0180911201882348
:100BE00031F083E00E9471041816190634F081E098
:100BF00090E09B838A8380E090E0DF91CF9108951D
:100C0000CF93DF931F92CDB7DEB76983DC01ED91FF
:100C1000FC910280F381E02D41E050E0BE016F5F66
:100C20007F4F09950F90DF91CF91089583E08093D6
:100C3000E9008091F200882319F08AE38093E800AC
:100C4000089583E00E94600490E00895CF93DF93BD
:100C50001F92CDB7DEB7FC018485958597FD08C04E
:100C60002FEF3FEF358724870F90DF91CF910895C5
:100C7000CE0101960E946602019719F4898190E0E5
:100C8000F3CF8FEF9FEFF0CF0F931F93CF93DF93AF
:100C90001F92CDB7DEB78C01FC018485958597FF47
:100CA0000BC0CE0101960E946602019771F4898102
:100CB00090E0F80195878487F801848595850F90E9
:100CC000DF91CF911F910F9108958FEF9FEFF1CF9B
:100CD000FC018485958597FD0BC09FB7F89482E051
:100CE0008093E9008091F2009FBF90E00196089503
:100CF0009FB7F89482E08093E9008091F2009FBF53
:100D000090E00895CF92DF92EF92FF920F931F939E
:100D1000CF93DF936C01EB017B01E40EF51E10E035
:100D200000E0CE15DF0581F069916D30D1F3D60179
:100D3000ED91FC910190F081E02DC6010995892B80
:100D400019F00F5F1F4FEDCFC801DF91CF911F91B9
:100D50000F91FF90EF90DF90CF900895DC016838FD
:100D6000A0F06858FD0186E0662321F09681961375
:100D700001C01682815031968111F6CFCD010496C3
:100D80000E94BE0581E090E00895862F90E067FF05
:100D900013C0FC01E058F10981E090E001C0880F28
:100DA000EA95EAF7809514969C91149789231496F6
:100DB0008C93149760E0D6CF1C96ED91FC911D9713
:100DC000E80FF91F64916623E1F0862F807C803C58
:100DD00069F414968C9114978F7B14968C931497C6
:100DE0006F73623309F0BECF64E6BCCF67FFF9CF03
:100DF00014968C9114978D7F14968C9314976F771B
:100E0000F0CF90E080E00895DC01683888F1685800
:100E100016968C911697861721F117968C91179735
:100E20008617F9F018968C9118978617D1F01996B5
:100E30008C9119978617A9F01A968C911A97861794
:100E400081F01B968C911B97861759F0FD01369601
:100E500090E080E0219121114FC08A0F9B1FFC017F
:100E60006683CD0104960E94BE0581E090E008955E
:100E7000862F90E067FF12C0FC01E058F10921E0E5
:100E800030E001C0220FEA95EAF714968C9114978E
:100E9000822B14968C93149760E0BACF1C96ED9138
:100EA000FC911D97E80FF91F6491611109C081E061
:100EB00090E013969C938E93129790E080E00895B3
:100EC000862F807C803C69F414968C911497806402
:100ED00014968C9314976F73623309F099CF64E67C
:100EE00097CF67FFF9CF14968C9114978260149670
:100EF0008C9314976F77F0CF01968630910509F0A7
:100F0000A9CFD5CFEF92FF921F93CF93DF93EC0140
:100F1000162F0E9404077C01612FCE010E94AE06AD
:100F2000C7019927DF91CF911F91FF90EF9008950E
:100F3000089590E080E00895DC01FB0191818081BB
:100F4000813A31F49D7F81E0913009F080E008958D
:100F50008132E1F79B3029F482811F968C9381E0E6
:100F600008959A3099F7828150968C93F8CFFC01BE
:100F70004281FB01248135814217130611F40C9440
:100F80009C0780E00895DC01FB0188E4808389E40C
:100F9000818384E482831D969C911D979F709F5B43
:100FA00093831D968D919C9124E0969587952A9523
:100FB000E1F78F708F5B848385E00895EF92FF9255
:100FC0000F931F93CF93DF93FB012081213871F59D
:100FD0002381223259F5DC0112964C91248135810E
:100FE0004217130619F5EC010B851C85F12CE12C39
:100FF0000115110589F0F8014481558162817381E1
:1010000080E80E943A048F3F980749F0E80EF91EE5
:10101000D8010D911C91ECCF81E08F87C701DF9142
:10102000CF911F910F91FF90EF90089590E080E095
:10103000F6CFCF93DF93CDB7DEB769970FB6F894AD
:10104000DEBF0FBECDBFFC01DB018C918F5F8C93A7
:101050009E012D5F3F4F8DE0D9011D928A95E9F7E2
:1010600029E0298384E08A8391E09D8383E08E8355
:101070002A8721E22B879C879D879F8722E2288BE6
:1010800027E02B8B25E02C8B8E8B20E430E0388FF3
:101090002F8B998F82818B8395858685998B8A8BFF
:1010A000838180688D8B49E150E0BE016F5F7F4F87
:1010B00080E00E943A0469960FB6F894DEBF0FBE36
:1010C000CDBFDF91CF910895FC014281FB012481C6
:1010D00035814217130611F40C949C0780E00895A3
:1010E000EF92FF920F931F93CF93DF93FB01208129
:1010F000213889F52381223271F5DC0112964C9159
:10110000248135814217130631F58C01FC01C3851A
:10111000D485F12CE12C209791F04C815D816A817E
:101120007B818E81811180E80E943A048F3F98076D
:1011300059F0E80EF91E0990D881C02DECCF81E05E
:10114000D8011F968C93C701DF91CF911F910F910A
:10115000FF90EF90089590E080E0F6CFCF93DF937B
:10116000CDB7DEB769970FB6F894DEBF0FBECDBF1F
:10117000FC01DB018C918F5F8C939E012D5F3F4FB3
:101180008DE0D9011D928A95E9F729E0298384E051
:101190008A8391E09D8383E08E832A8721E22B87D7
:1011A0009C879D879F8722E2288B27E02B8B25E059
:1011B0002C8B8E8B20E430E0388F2F8B998F82819F
:1011C0008B8395858685998B8A8B838180688D8BAF
:1011D00049E150E0BE016F5F7F4F80E00E943A041A
:1011E00069960FB6F894DEBF0FBECDBFDF91CF91E9
:1011F00008951F920F920FB60F9211242F933F93D1
:101200008F939F93AF93BF938091B1019091B2015F
:10121000A091B301B091B4013091AA0123E0230F52
:101220002D3758F50196A11DB11D2093AA01809379
:10123000B1019093B201A093B301B093B401809136
:10124000AB019091AC01A091AD01B091AE010196BE
:10125000A11DB11D8093AB019093AC01A093AD0192
:10126000B093AE01BF91AF919F918F913F912F911C
:101270000F900FBE0F901F90189526E8230F02962F
:10128000A11DB11DD2CF1F920F920FB60F92112444
:101290002F933F934F935F936F937F938F939F937E
:1012A000AF93BF93EF93FF93E0911B01F0911C016B
:1012B0000995FF91EF91BF91AF919F918F917F9190
:1012C0006F915F914F913F912F910F900FBE0F90B3
:1012D0001F9018951F920F920FB60F9211242F9303
:1012E0003F934F935F936F937F938F939F93AF93AE
:1012F000BF93EF93FF93E0911901F0911A010995C3
:10130000FF91EF91BF91AF919F918F917F916F91DD
:101310005F914F913F912F910F900FBE0F901F90B3
:1013200018951F920F920FB60F9211242F933F938F
:101330004F935F936F937F938F939F93AF93BF93DD
:10134000EF93FF93E0911701F09118010995FF9138
:10135000EF91BF91AF919F918F917F916F915F912D
:101360004F913F912F910F900FBE0F901F901895A6
:101370001F920F920FB60F9211242F933F934F930A
:101380005F936F937F938F939F93AF93BF93EF93ED
:10139000FF93E0911501F09116010995FF91EF91EE
:1013A000BF91AF919F918F917F916F915F914F917D
:1013B0003F912F910F900FBE0F901F9018951F9285
:1013C0000F920FB60F9211242F933F934F935F9379
:1013D0006F937F938F939F93AF93BF93EF93FF93FD
:1013E000E0911301F09114010995FF91EF91BF91E4
:1013F000AF919F918F917F916F915F914F913F91AD
:101400002F910F900FBE0F901F9018951F920F9263
:101410000FB60F9211248F939F938091E1009091CA
:10142000E100937F9093E10083FF0FC01092E900E9
:1014300091E09093EB001092EC0092E39093ED001A
:101440001092B00198E09093F00082FF22C093E0E8
:101450009093E9009091F200992319F09AE3909308
:10146000E8009091A301992341F09091A30191503C
:101470009093A301911101C05D9A9091AF019923BE
:1014800041F09091AF0191509093AF01911101C043
:10149000289A84FF18C08091E2008E7E816080933C
:1014A000E2008091E1008F7E8093E1008091A401B1
:1014B0008E7E80618093A4019F918F910F900FBECB
:1014C0000F901F90189580FFF7CF8091E2008E7EDD
:1014D00080618093E2008091E1008E7E8093E10044
:1014E0008091A4018E7E8160E5CF1F920F920FB68E
:1014F0000F921124CF92DF92EF92FF920F931F93DE
:101500002F933F934F935F936F937F938F939F930B
:10151000AF93BF93EF93FF93CF93DF93CDB7DEB736
:101520006C97DEBFCDBF1092E9008091E80083FF89
:1015300025C068E0CE0145960E94070582EF8093A2
:10154000E8008D8987FF39C09091E80090FFFCCFBB
:10155000982F907609F034C19E894F89588D2F8934
:10156000F88C911131C0803861F58091A50180938C
:10157000F1001092F1008EEF8093E8006C960FB6A8
:10158000F894DEBF0FBECDBFDF91CF91FF91EF91F9
:10159000BF91AF919F918F917F916F915F914F918B
:1015A0003F912F911F910F91FF90EF90DF90CF907F
:1015B0000F900FBE0F901F9018959EEF9093E8002C
:1015C000C7CF1092F100D5CF913059F48111D3CF0C
:1015D0004130510581F68091A5018D7F8093A50151
:1015E000CACF933049F48111C6CF4130510519F665
:1015F0008091A5018260F2CF953041F48091E8009E
:1016000080FFFCCF20682093E300B5CF963009F02F
:10161000A9C00B8D1C8D22E01092E9001092A1014F
:101620001092A001F2122EC010929F0110929E0102
:101630000E9428051F8299E09983FA8291E09E8397
:1016400090EA98879AEF99872091A0013091A101A3
:10165000275F3F4F3C832B838D831092E9001092CC
:10166000A1011092A00110939F0100939E0149E0F7
:1016700050E0BE016F5F7F4F80E00E943A040E94FD
:10168000280579CF10939F0100939E010E941405B5
:10169000DC0112960D911C910115110509F451C13F
:1016A000D801ED91FC910480F581E02DBE016B5EC7
:1016B0007F4FC8010995009709F03EC1F8010085E8
:1016C0001185EACFF3E0FF120EC08F89882309F459
:1016D00040C0823061F440E860E180E191E00E9426
:1016E0000704811148CF81E28093EB0047CF81301E
:1016F00029F440E86BE084E091E0F1CF833099F782
:101700000E941405DC011296ED90FC908E010F5F93
:101710001F4F6801E114F10479F0D701ED91FC91BC
:101720000680F781E02DB801C7010995080F111D4A
:10173000F701E084F184EECFD8011C92F60101900C
:101740000020E9F73197BF016C197D0940E0C6011F
:10175000C6CF6EEE70E0FB01449150E080E80E943D
:101760003A0409CF973009F4BECF983021F481E0D4
:101770008093F10000CF993009F0FDCE837009F01D
:10178000B2CFE1E0F1E081E031E096E32191222364
:1017900071F08093E9003093EB00DF0111972C91F9
:1017A0002093EC009093ED008F5F873079F78EE700
:1017B0008093EA001092EA008F898093B001DBCE1B
:1017C0008B8D9C8D1092E9001092A1011092A001C6
:1017D00090939F0180939E01898D811192C08E8983
:1017E0009D89913A49F4813209F07DCF47E050E07C
:1017F0006BE071E080E0B3CF913209F074CF8332B7
:1018000069F48F89988DB0E0A0E0809307019093F0
:101810000801A0930901B0930A01ADCE803269F4AA
:101820008091E80082FFFCCF67E08BE091E00E94AE
:1018300007058BEF8093E8009ECE823209F09BCEA5
:101840008F8980931201EEEFFFE7859194918B3F92
:101850009C4D51F1E0E0F8E080910B0190910C017A
:10186000A0910D01B0910E01803B9440A105B105FE
:10187000F1F48091120180FD1AC0EE3F8AE0F80772
:1018800089F587E797E79183808380916000809353
:10189000A20188E19BE00FB6F894A89580936000C0
:1018A0000FBE9093600067CEEEEFFAE0D5CF808157
:1018B00091818737974709F05ECEA89580916000A7
:1018C0008861809360008091A20180936000EE3F68
:1018D0002AE0F20789F08091FE0A9091FF0A918335
:1018E000808349CE808191818737980751F2909308
:1018F000FF0A8093FE0AC5CF1092FF0A1092FE0ADB
:101900003ACE0E941405DC0112960D911C9101152E
:10191000110509F4E8CED801ED91FC910190F08118
:10192000E02DBE016B5E7F4FC8010995811123CE6A
:10193000F80100851185EBCF181619060CF41BCEA3
:10194000D2CEF1E0FF12BECE62EF70E004CFCF92B4
:10195000DF92EF92FF921F93CF93DF93CDB7DEB765
:10196000C659D1090FB6F894DEBF0FBECDBF109295
:10197000B8011092B70188EE93E0A0E0B0E0809348
:10198000B9019093BA01A093BB01B093BC0182E569
:1019900091E09093B6018093B5018FEF9FEF909304
:1019A000C2018093C101109216021092150284E6C2
:1019B00091E0909314028093130280910B028111A5
:1019C00013C0109206021092050288E292E09093F2
:1019D0000802809307028FE290E090930A028093BE
:1019E000090281E080930B0280914C03811105C0B4
:1019F0000E94A10581E080934C03E0914603F091A1
:101A00004703309709F07AC285E092E0909347034C
:101A100080934603809148039091490320910902E5
:101A200030910A02820F931F9093490380934803D9
:101A300088EA91E09093200280931F0281E88093CE
:101A400033018093370190E890932501809327011B
:101A500080932B011092CE021092D2021092D102EA
:101A60001092D3028CE791E09093CD028093CC0248
:101A7000E8EEF2E01082148213821582369683E03B
:101A8000E432F807B9F781E291E090932F03809355
:101A90002E038DE191E0909331038093300323E096
:101AA0002093320384E08093330380E391E09093AA
:101AB0002D0380932C038AE090E09093350380936C
:101AC000340384EF91E090933703809336031092B0
:101AD0003A031092390310922803109229031092AE
:101AE0002A0310922B031092380310926B0210926B
:101AF0006A0210926E021092720210927302109299
:101B00007402109275028FEF93E0A0E0B0E0809332
:101B1000760290937702A0937802B09379021092A4
:101B20007A0210927B0210927C0210927D028093C6
:101B30007E0290937F02A0938002B0938102109264
:101B40008202109283021092840210928502809386
:101B5000860290938702A0938802B0938902109224
:101B60008A0210928B0210928C0210928D02809346
:101B70008E0290938F02A0939002B09391021092E4
:101B80009202109293021092940210929502809306
:101B9000960290939702A0939802B09399021092A4
:101BA0009A0210929B0210929C0210929D028093C6
:101BB0009E0290939F02A093A002B093A102109264
:101BC000A2021092A3021092A4021092A502809386
:101BD000A6029093A702A093A802B093A902109224
:101BE000AA021092AB021092AC021092AD02809346
:101BF000AE029093AF02A093B002B093B1021092E4
:101C0000B2021092B3021092B4021092B502809305
:101C1000B6029093B702A093B802B093B9021092A3
:101C2000BA021092BB021092BC021092BD028093C5
:101C3000BE029093BF02A093C002B093C102109263
:101C4000C2021092C3021092C4021092C502809385
:101C5000C6029093C702A093C802B093C902209312
:101C6000CA0232E130936D0210926F0211E01093BC
:101C700070021092710295E099831A8389E08B8338
:101C80009C8371EA7D831E8345E84F83288799876B
:101C90008A8749E14B871C8749E24D873E87E5E10A
:101CA000EF87188A45E2498B1A8B55E75B8B1C8BB3
:101CB00045E94D8B3E8B35E53F8B188E35E6398FE8
:101CC0001A8E31E83B8F62E06C8F5D8F1E8F4F8FD5
:101CD000F6E0F8A339A32AA39BA31CA38DA31EA3FC
:101CE000EFA318A697E299A79FEF9AA79BA71CA618
:101CF0001DA65EA790E19FA748AB19AB7AAB1BAAC4
:101D00008CAB80E38DAB3EAB6FAB80EC88AF89AF23
:101D100089E390E00E94B6126C0189E3FE013196DE
:101D2000D60101900D928A95E1F787E090E00E943C
:101D3000B6127C01FC0111821082D382C28289E337
:101D400090E09583848316828091320281112BC0AA
:101D500010932502109326028BE292E090932802C2
:101D60008093270210922A021092290280E791E0C4
:101D7000909322028093210210922D0210922C0245
:101D800010922F0210922E02109330021093310203
:101D900081EC80932B020E94140561E272E00E94A4
:101DA000590510933202E0912C02F0912D023097E8
:101DB00009F0AEC0F0922D02E0922C0280912E022A
:101DC00090912F02F70124813581820F931F909308
:101DD0002F0280932E0290916D02892F8695869511
:101DE0008695977009F09BC080936E0210916E02E9
:101DF000812F90E00E94B61290936B0280936A024A
:101E000081E090916F02911101C080E01E5F810F0F
:101E10008093CB0210923A0210923B0210923C0245
:101E200010923D0210923E0210923F021092400228
:101E30001092410210924202109243021092440208
:101E400010924502109246021092470210924802E8
:101E50001092490210924A0210924B0210924C02C8
:101E600010924D0210924E0210924F0210925002A8
:101E70001092510210925202109253021092540288
:101E80001092550210925602109257021092580268
:101E90001092590210925A0210925B0210925C0248
:101EA00010925D0210925E0210925F021092600228
:101EB0001092610210926202109263021092640208
:101EC000109265028FEF9FEF9093670280936602F6
:101ED000909369028093680290E080E020916E0206
:101EE00028171906F1F0ECF0E0916A02F0916B020C
:101EF000E80FF91F10820196F1CFFC0180819181DA
:101F00000097D9F785E092E09183808383CDFC012F
:101F1000808191810097D9F7F182E0824FCF8F5F66
:101F200063CF80915A03811113C010925503109210
:101F3000540387E592E0909357038093560388EF0C
:101F400090E0909359038093580381E080935A0363
:101F500080914C03811105C00E94A10581E080930E
:101F60004C03E0914603F0914703309721F584E557
:101F700093E09093470380934603809148039091A8
:101F800049032091580330915903820F931F909376
:101F9000490380934803CA56DF4F0FB6F894DEBF5B
:101FA0000FBECDBFDF91CF911F91FF90EF90DF90DB
:101FB000CF900895FC01808191810097D9F784E545
:101FC00093E091838083D9CFCF93DF93CDB7DEB7F2
:101FD00062970FB6F894DEBF0FBECDBF789484B57C
:101FE000826084BD84B5816084BD85B5826085BD15
:101FF00085B5816085BD80916E00816080936E00A3
:102000001092810080918100826080938100809194
:102010008100816080938100809180008160809345
:102020008000809191008260809391008091910066
:1020300081608093910080919000816080939000F6
:102040008091C10084608093C1008091C100826052
:102050008093C1008091C10081608093C100809114
:10206000C30081608093C3008091C0008260809330
:10207000C0008091C20081608093C20080917A008C
:10208000846080937A0080917A00826080937A00E5
:1020900080917A00816080937A0080917A008068D4
:1020A00080937A001092B0011092A5011092A401C1
:1020B0008091D70081608093D70080EA8093D80018
:1020C00089B5806189BD89B5826089BD09B400FE8A
:1020D000FDCF0E9494038091D8008F7C8061809313
:1020E000D8008091E000807F8093E0008091E10043
:1020F0008E7E8093E1008DE08093E200559A209AD5
:102100008FEF9FEF9093C2018093C10184E291E031
:1021100090932D0380932C0388EA91E09093200202
:1021200080931F0262E080E00E94330362E081E05E
:102130000E94330387EB93E090931801809317017B
:1021400080916900806380936900EA9A412C512C48
:1021500032014394F0E02F2EF0E03F2E0E946F03F7
:102160007B018C0120E030E0A9016983FA828B8336
:102170001C832D833E834F8358878FB7F8944091FB
:10218000B1015091B2016091B3017091B4018FBF60
:102190008091280390912903A0912A03B0912B03E9
:1021A000481B590B6A0B7B0B8091340390913503CC
:1021B000B0E0A0E084179507A607B70708F03AC17A
:1021C000198680913203F984F81670F4E0912E0399
:1021D000F0912F03EF0DF11D62E080810E94330327
:1021E00009850F5F0987EDCFB12C80913303B816B5
:1021F00008F06FC00B2D10E0E0913003F091310337
:10220000E00FF11F61E080810E943303E091300311
:10221000F0913103E00FF11F60E080810E9405031F
:10222000D301C2010B2C04C0880F991FAA1FBB1F2A
:102230000A94D2F76C017C01E094F094A12C809177
:102240003203A81678F52A2D30E03A872987E091E5
:102250002E03F0912F03A901E40FF51F80810E9446
:10226000DC02E985FA853496FA87E987892B61F4DF
:10227000EE0FFF1FE453FD4F808191818C299D2932
:1022800091838083A394DBCF29853A85220F331F66
:1022900024533D4F3A872987F901808191818E210E
:1022A0009F21EECFE0913003F0913103E00FF11F59
:1022B00061E080810E940503809130039091310399
:1022C000080F191F60E0F80180810E943303B39466
:1022D0008CCF0CEC12E01A870987F801878D90A14A
:1022E000892B39F4148EEE24EA94FE2CF68EE58EBA
:1022F00011A20A5F1F4F28E033E02017310769F76A
:10230000F12C80913203F81608F053C0E12CCF2C49
:10231000D12CCC0CDD1CA6014C525D4F6A012091E2
:102320003303E21608F043C0F601608171810E2C80
:1023300002C0769567950A94E2F7F29E9001112407
:102340002E0D311DECECF2E080E0458D568D24170A
:10235000350709F4FAC08F5F36968A30B1F760FF0F
:1023600024C0ECECF2E090E080E0448D411118C014
:10237000E0912C03F0912D03E20FF31F608146E002
:10238000489FF001499FF00D1124E453FD4F648FE5
:10239000368F258F10A2178E61E00E94F60105C0CE
:1023A000019636968A30910501F7E394B8CFF394FD
:1023B000A8CF3CECE32E32E0F32E20E0F70181A120
:1023C0008111282FF6E0EF0EF11C0E151F05B1F755
:1023D0003FB7F8948091B1019091B201A091B301FF
:1023E000B091B4013FBF8093280390932903A09339
:1023F0002A03B0932B032223E9F0E985FA8581A112
:10240000882379F0878D90A18130910509F471C0FE
:1024100008F487C08230910509F47BC0039709F462
:1024200080C009851A850A5F1F4F1A8709870E1514
:102430001F0519F78091A6019091A701A091A8010D
:10244000B091A901181619061A061B060CF071C0E6
:102450006EE683E192E00E9404076EE683E192E07B
:102460000E94AE061092A6011092A7011092A80138
:102470001092A9010E946F037B018C0120E030E0E3
:10248000A9016B87FC868D871E872F87388B498B28
:102490005A8B9B01AC0160E070E080E090E0A98085
:1024A000BA80CB80DC80E12CF12C00E010E00E94AF
:1024B000AD1249012F31314A47405105610571057F
:1024C0008105910509F070F480E291EA8819990973
:1024D0008230910538F0880F991F880F991F059752
:1024E0000197F1F72114310409F438CE0E9400005D
:1024F00035CE4BE050E062E871E085EB91E00E9460
:10250000EA0542E050E06EE871E085EB91E00E9460
:10251000EA05E985FA85648D83E192E00E9404076B
:1025200080CFE985FA85648D83E192E00E94AE0652
:1025300078CF892B8A2B8B2B09F494CF6DE683E11E
:1025400092E00E9404076DE689CF617026CFEE0FFE
:10255000FF1F0590F491E02D09942A193B094C09BD
:102560005D096E097F09800B910B08950F931F93EE
:10257000CF93DF938230910510F482E090E0E091F8
:102580006403F091650330E020E0B0E0A0E0309714
:1025900099F42115310509F44AC0281B390B243060
:1025A0003105D8F58A819B816115710589F1FB019F
:1025B00093838283FE0111C0408151810281138186
:1025C00048175907E0F04817590799F4109761F038
:1025D00012960C93129713961C933296CF01DF91AB
:1025E000CF911F910F910895009364031093650399
:1025F000F4CF2115310551F04217530738F0A901E6
:10260000DB019A01BD01DF01F801C1CFEF01F9CF74
:102610009093650380936403CDCFFE01E20FF31F17
:10262000819391932250310939832883D7CF209108
:10263000620330916303232B41F420913E013091DA
:102640003F01309363032093620320913C0130915A
:102650003D012115310541F42DB73EB740914001B0
:1026600050914101241B350BE0916203F09163030B
:10267000E217F307A0F42E1B3F0B2817390778F059
:10268000AC014E5F5F4F2417350748F04E0F5F1FB8
:102690005093630340936203819391939FCFF0E043
:1026A000E0E09CCFCF93DF930097E9F0FC013297F5
:1026B00013821282A0916403B0916503ED0130E0B2
:1026C00020E01097A1F420813181820F931F209187
:1026D0006203309163032817390709F061C0F09352
:1026E0006303E0936203DF91CF910895EA01CE176F
:1026F000DF07E8F54A815B819E0141155105B1F77D
:10270000E901FB83EA8349915991C40FD51FEC1766
:10271000FD0761F4808191810296840F951FE90184
:1027200099838883828193819B838A83F0E0E0E0B0
:1027300012968D919C9113970097B9F52D913C912C
:102740001197CD010296820F931F20916203309161
:1027500063032817390739F6309751F5109265034E
:1027600010926403B0936303A0936203BCCFD3833E
:10277000C28340815181840F951FC817D90761F426
:102780004E5F5F4F88819981480F591F5183408365
:102790008A819B81938382832115310509F0B0CF13
:1027A000F0936503E09364039ECFFD01DC01C0CF8D
:0A27B00013821282D7CFF894FFCFF6
:1027BA0000C18081000000FFFFFFFF00E100000070
:1027CA00000000D803D803D803D803D803040506A9
:1027DA0007121314B100B000D8B3D70064666A6B4D
:1027EA00060A07000B0C0D000E0F101100006603FD
:1027FA00800000000000B7071908DE07C3070000C1
:10280A0000000006EA0521061606680626064406A2
:10281A00000000008207820699079807000000005E
:10282A006408AE087008C30700000000AC03B003D8
:10283A00B4036B65792070726573736564000D0A61
:02284A0000008C
:00000001FF
